:020000040800F2
:1000000020A40020250300082D0300084704000851
:100010003103000833030008350300080000000026
:10002000000000000000000000000000370300088E
:1000300039030008000000009303000879710008EC
:100040003F0300083F0300083F0300083F03000888
:100050003F0300083F03000867340008B534000878
:10006000C7340008D9340008EB3400083F03000807
:10007000893200083F030008A1320008B9320008A5
:100080003F0300083F0300083F0300083F03000848
:100090003F0300083F0300083F030008FD34000849
:1000A0003F0300083F0300087D7600083F03000877
:1000B0003F0300083F0300083F0300083F03000818
:1000C0003F0300083F0300083F030008E56E0008F7
:1000D000FD6E0008E97B00083F030008017C000872
:1000E000793400083F0300083F0300083F0300087D
:1000F000AD760008957600083F0300083F0300082E
:100100003F030008A56D00083F0300083F030008F7
:100110003F0300083F0300083F0300083F030008B7
:10012000D13200083F030008E9320008013300081B
:100130003F0300083F0300083F0300083F03000897
:100140003F0300083F0300083F0300083F03000887
:100150003F0300083F0300083F0300083F03000877
:100160003F0300083F0300083F0300083F03000867
:100170003F0300083F0300083F03000800000000A1
:100180003F0300083F03000800F002F800F0BBF84E
:100190000AA090E8000C82448344AAF10107DA45E2
:1001A00001D100F0B0F8AFF2090EBAE80F0013F079
:1001B000010F18BFFB1A43F00103184784CB060058
:1001C000A4CB06000A444FF0000C10F8013B13F0DA
:1001D000070408BF10F8014B1D1108BF10F8015BA0
:1001E000641E05D010F8016B641E01F8016BF9D193
:1001F00013F0080F1EBF10F8014BAD1C0C1B09D1EA
:100200006D1E58BF01F801CBFAD505E014F8016B5B
:1002100001F8016B6D1EF9D59142D6D370470000ED
:100220000023002400250026103A28BF78C1FBD8FF
:10023000520728BF30C148BF0B6070476E2901F0DC
:10024000AA85702900F09982662936F0F68365291F
:1002500036F0F383672936F0F083612936F0EF83B7
:1002600003681B0A28BF41F08001692900F00A8257
:10027000642900F00782752900F004826F2901F0DB
:100280005D86782900F06582E92901F0F785E42987
:1002900001F0F485F52901F0F185EF2901F05A8686
:1002A000F82900F064820368DB0928BF41F080016F
:1002B000632900F03E87732900F04387E32902F0A9
:1002C0009982F32902F09E82002070471FB536F014
:1002D000AFFB01F09BF804000020002136F066FB24
:1002E000401C60600020002136F08CFBE0600020A4
:1002F000002136F071FB206100F08AFF1FBD10B5B0
:1003000000F0EFFF10BD01F0AFFA1146FFF7DEFF7E
:1003100002F005FF01F0E0FC03B4FFF7F0FF03BCBF
:1003200009F072FA0948804709480047FEE7FEE7EE
:10033000FEE7FEE7FEE7FEE7FEE7FEE7FEE7FEE795
:1003400004480549054A064B7047000081720008C1
:1003500089010008209E002020A4002020A0002069
:1003600020A00020EFF3108072B6704780F3108851
:100370007047434A1368012B04D04FF00103136008
:10038000404A1060404A116040484FF0805101607F
:100390007047EFF3108272B63948016851B34FF0DD
:1003A000000101603748016891B1EFF309811EF047
:1003B000100F08BF21ED108B21E9F00F4FF0000462
:1003C0001EF0100F08BF012441F8044D00680160C1
:1003D0002D490968096808C9B1E8F00F002B18BF5A
:1003E000B1EC108B81F309884EF0100E002B18BF72
:1003F0002EF0100E82F310884EF0040E7047224942
:100400000860EFF3148222F0040282F314881D497D
:100410004FF0000008601A494FF0010008601C48C6
:100420004FF47F01D0F8002041EA02010160174833
:100430004FF08051016017480068006880F3088819
:1004400061B662B670471EF0040F0CBFEFF3088070
:10045000EFF3098020E9F00F40F804ED40F804EDD7
:100460001EF0040F0CBF80F3088880F3098800B5E4
:100470002BF0AEFD5DF804EB4EF0040E704700006B
:10048000A8090020A0090020A409002004ED00E034
:1004900020ED00E008ED00E07047000000487047E4
:1004A000789D00207047704753EA020C00F0698085
:1004B0002DE9F04B4FF00006002B1FBFB3FA83F578
:1004C00003FA05F424FA05F65E4012BF1643B2FAA9
:1004D00082F502FA05F4C5F120051EBF22FA05FCDB
:1004E00044EA0C04203556EA044C4FEA144418BF81
:1004F000641C4FF000084FF00009904271EB030CB0
:1005000039D3002919BFB1FA81F701FA07F6B0FA19
:1005100080F700FA07F6C7F120071EBF20FA07FC94
:1005200046EA0C062037B6FBF4FCA7EB0507103FA4
:1005300007F01F0BCBF120060CFA0BFB2CFA06F68A
:1005400044BFB3460026202FA4BF5E464FF0000BE9
:100550005BEA060C08BF4FF0010B19EB0B09ABFB74
:10056000027C48EB0608C01B06FB02CC0BFB03CC4D
:1005700071EB0C01C1E70B46024641464846BDE817
:10058000F08B13B54FF000004FF00001AFF3008087
:10059000BDE81C40704710B54C1084EA530404D5E4
:1005A0004042C1F1000138BF491E1B4204D55242EE
:1005B000C3F1000338BF5B1EFFF776FF14F0804FD6
:1005C00004D04042C1F1000138BF491E14F0004F71
:1005D00004D05242C3F1000338BF5B1E10BD0000BF
:1005E0000FB4044910B503AA029800F0AFFD10BC87
:1005F0005DF814FBA49C00200FB47CB50C0009AA84
:10060000009001D02044401E084B7B446946019075
:10061000089800F064FD05461CB10020694600F012
:1006200071FD28467CBC5DF814FB0000010B000046
:1006300070B50C460546012A05D02878800600D5FD
:10064000EA69002302E0012305E05B1C934202D229
:10065000E05C0028F9D1A869E618C01AA861286AE8
:1006600018442862284601F05DFB04E0D5E9012129
:1006700014F8010B9047B442F8D3284601F068FB08
:1006800070BD00002DE9F041064600241068752970
:10069000314616A510D001F06CFB002802DA40426A
:1006A00013A507E031688A0701D512A502E04907C2
:1006B00004D511A5012401E001F064FB00210A2208
:1006C00006F1240709E0B0FBF2FCB0FBF2F302FBF9
:1006D0001C00303078541846491C0028F3D12346BA
:1006E0002A463046BDE8F04100F09ABC0000000008
:1006F0002D0000002B00000020000000F0B40D468B
:100700000188090502D5214C7C4402E01F4C7C4441
:100710000E34002100F1240608E002F00F07120950
:10072000E75D42EA03721B097754491C52EA03074A
:10073000F3D102780023120704D5702D06D009B139
:10074000022311342246F0BC00F06ABC01231034AD
:10075000F8E770B504460D462146106801F012FB1B
:10076000024629462046BDE870400023C6E7D21D58
:1007700022F00703D3E90023C0E70368126843F0BF
:10078000200303600823C3610023B7E73CA80600E9
:100790002DE9F05F894604464FF0000ADFF874B196
:1007A000FB44C0F820A02046E1688847002874D0A8
:1007B000252806D0D4E901219047206A401C2062F8
:1007C000F1E700265F462046E16888472028054675
:1007D00007DB312D05D2781910F8200C08B106433B
:1007E000F1E7B00701D526F00406C4F81CA00027E5
:1007F000C4F818A02A2D09D0284608F0BBF838B351
:1008000004EB8708303DC8F8185019E059F8041B6C
:10081000204604EB87029161E1688847012F054675
:1008200018D1E069002820DA26F020061DE0D8F86B
:10083000180000EB800005EB40003038C8F81800C5
:100840002046E1688847054608F094F80028EED174
:10085000012F0AD02E2D08D12046E16888477F1C41
:100860000546022F46F02006C4DBA069002803DA03
:10087000404246F00106A061F00701D026F01006C4
:100880006C2D0BD0682D09D04C2D39D06A2D35D068
:10089000742D35D07A2D33D016E038E0E1682F463C
:1008A00020468847B842054609D16C2F26D04FF420
:1008B0008060E168064320468847054604E06C2FC7
:1008C0001AD04FF4807006430DB3A5F141001928EA
:1008D00002D8203546F400664A462946204626605E
:1008E0004E46FFF7ABFC80B101280BD0F61D26F079
:1008F000070000F1080956E74020E4E78020D8E728
:100900000020D6E706F104094DE7284652E7206AA1
:10091000BDE8F09FCCA7060070B50646FFF7BEFD08
:100920000468054630460A22002100F00FF82C60CA
:1009300070BD70B50646FFF7B1FD04680546304648
:100940000A22002100F002F82C6070BD2DE9F0476A
:1009500091460F4680460446002614F8015B2DB1EF
:1009600000F056FB0068405DC007F6D12B2D02D089
:100970002D2D18D0641E4A463946204600F0F8FB5B
:1009800027B13968A14201D1C7F800804FF00204B5
:1009900071050BD54042002803DDFFF77FFD0460A1
:1009A000A007BDE8F08746F48066E4E70028F8DA9F
:1009B000FFF774FD04606FF00040F2E70FF0C8BF6E
:1009C000401ECAB210F8011F8A4202D00029F9D194
:1009D0000020704730B503461D781DB10A4603E07C
:1009E000AC4201D1181A30BD12F8014B002CF7D1DE
:1009F0005B1CF1E730B503461D783DB10A4612F89D
:100A0000014B1CB1AC42FAD15B1CF5E7181A30BDA2
:100A100030B505460B462A4613F8014B12F8010B78
:100A200008B1A042F8D01CB1002802D06D1CF1E73B
:100A3000284630BD40EA010310B59B070FD1042AB8
:100A40000DD310C808C9121F9C42F8D020BA19BA99
:100A5000884201D9012010BD4FF0FF3010BD1AB1FE
:100A6000D30703D0521C07E0002010BD10F8013B53
:100A700011F8014B1B1B07D110F8013B11F8014B7A
:100A80001B1B01D1921EF1D1184610BD40EA010393
:100A9000024630B59B0710D14FF0013400E008C288
:100AA00008C91D1B9D4315EAC41FF8D013F0FF01B0
:100AB00002F8011B0DD01B0AF8E711F8013B002BCF
:100AC00002F8013B05D011F8013B002B02F8013B75
:100AD000F3D130BD0022CBB210F8011B994200D1F6
:100AE000421E0029F8D11046704710B5431C02E0A1
:100AF00010F8011B71B18107FAD14FF0013202C821
:100B00008C1A8C4314EAC211F9D0C01A0A0603D019
:100B1000C01E10BDC01A10BD0A0401D0801E10BD39
:100B20000902FCD0401E10BD40EA010370B59B07CE
:100B30002ED14FF00136042A2AD308C810C99D1BB4
:100B40009D43121F15EAC61517D0D8B2E1B2401A5C
:100B500050EA056110D198B2A1B2401A50EA05419D
:100B60000AD123F07F4024F07F41401A50EA05214A
:100B700002D1180EA0EB146070BDA342DBD018BAEE
:100B800021BA884201D9012070BD4FF0FF3070BDFD
:100B90000AB9002070BD10F8013B11F8014B63B198
:100BA000A3420AD1521E08D010F8013B11F8014BA4
:100BB0001BB1A34201D1521EEDD1181B70BD421EC4
:100BC00012F8013F002BFBD111F8013B002B02F87A
:100BD000013BF9D17047032A40F2308010F0030C3A
:100BE00000F0158011F8013BBCF1020F624498BF80
:100BF00011F801CB00F8013B38BF11F8013BA2F11D
:100C0000040298BF00F801CB38BF00F8013B11F097
:100C1000030300F02580083AC0F0088051F8043B37
:100C2000083A51F804CBA0E80810F5E7121D5CBFA4
:100C300051F8043B40F8043BAFF30080D20724BFD7
:100C400011F8013B11F801CB48BF11F8012B24BF6B
:100C500000F8013B00F801CB48BF00F8012B7047BA
:100C600010B5203AC0F00B80B1E81850203AA0E847
:100C70001850B1E81850A0E81850BFF4F5AF5FEA7B
:100C8000027C24BFB1E81850A0E8185044BF18C92E
:100C900018C0BDE810405FEA827C24BF51F8043BD5
:100CA00040F8043B08BF7047D20728BF31F8023B29
:100CB00048BF11F8012B28BF20F8023B48BF00F8BD
:100CC000012B704702F0FF0343EA032242EA02428B
:100CD00000F002B84FF000020429C0F0128010F0BA
:100CE000030C00F01B80CCF1040CBCF1020F18BF08
:100CF00000F8012BA8BF20F8022BA1EB0C0100F09B
:100D00000DB85FEAC17C24BF00F8012B00F8012B6D
:100D100048BF00F8012B70474FF0000200B51346A2
:100D200094469646203922BFA0E80C50A0E80C500B
:100D3000B1F12001BFF4F7AF090728BFA0E80C50BC
:100D400048BF0CC05DF804EB890028BF40F8042BB5
:100D500008BF704748BF20F8022B11F0804F18BF22
:100D600000F8012B704710B5044610F0030F08BFC0
:100D700011F0030F40F015804FF0013E121FC0F23A
:100D80000E8051F8043BA3EB0E0C2CEA030C1CEA7A
:100D9000CE1C08BF40F8043BF0D0A1F1040102F1E1
:100DA0000402521E08DB11F8013B002B00F8013B46
:100DB000F7D11146FFF78EFF204610BD4FF0013CE2
:100DC00050F8042B51F8043B9A4221D1A2EB0C03BA
:100DD000934313EACC1317D150F8042B51F8043B7A
:100DE0009A4215D1A2EB0C03934313EACC130BD117
:100DF00050F8042B51F8043B9A4209D1A2EB0C03A2
:100E0000934313EACC13DBD04FF00000704700BFD0
:100E1000D01A01BAB1FA81F101F0180122FA01F0F9
:100E2000CB40C1F12001DBB2C0B2C01A2CFA01F3F1
:100E3000D11A914311EAC311E6D1704710B500F001
:100E400005F8BDE8104000F07FBA0000014900F04D
:100E500081BA00004C9D002010B503681C1404EBFF
:100E600021449BB289B2194494FBF2F302FB134371
:100E700094FBF2F401EB034393FBF2F102FB11311B
:100E800093FBF2F301E05B1E11440029FBDB0160E0
:100E900003EB044010BD2DE9F04704464FF0FF3A44
:100EA00086B00068029060680390A0680490E068D3
:100EB000019020690090656905F18040B0F1004F14
:100EC0007DD83C22002102A8FFF7C6FF3C22014644
:100ED00003A8FFF7C1FF1822014604A8FFF7BCFFD3
:100EE000411E40F2B55201A8FFF7B6FF0C2206469C
:100EF00068460021FFF7B0FF00EB860028443E4D16
:100F000000267D440FE09A1A491CCDE900120229FF
:100F100002D00C2907D104E0810704D0521C0192B1
:100F200001E0401C00960099019B6A5C9A42EADD50
:100F3000012906D11C2B04D1810702D00221CDE961
:100F40000016A0F146018B2940D20199009B002296
:100F50000F4602E0AE5C521C31449A42FADB012B90
:100F600002DD820700D0491E40F2B55540F26D16F1
:100F7000C21700EB927292106A4300F0030505FB62
:100F8000062285070A4400D1521E049D02EB420648
:100F9000DDF80C80A94605EBC605184EC5EB051516
:100FA000DDF808C008EB850535442E14ADB2C6EB5C
:100FB0000616C5EB0515B6000CEB850500E005E04F
:100FC00006EB154666F31F45360C03D0504606B0B7
:100FD000BDE8F087C4E904307F1C0720521CC4E937
:100FE000029792FBF0F3E4E806C800FB132084E8C4
:100FF00003042846EBE700007BA00600A039CEFDE5
:10100000704770477047000000487047789D002087
:1010100010B500F0FBF9001D10BD00BF9159030091
:101020002DE9F0470D4699469246044600F1240802
:101030000168880604D5E06921F01001216000E014
:101040000120A84201DD471B00E00027A1697A19B1
:1010500002EB0900081AA0612078C00602D42046DD
:1010600000F060FE002608E0D4E901211AF806002D
:101070009047206A401C761C20624E45F4DB2078A5
:10108000C0060AD5204600F04DFE06E0D4E9012155
:1010900030209047206A401C2062381EA7F10107CB
:1010A000F4DC07E0D4E9012118F805009047206A34
:1010B000401C2062281EA5F10105F3DC204600F04B
:1010C00047FE2078000602D50220BDE8F087012007
:1010D000FBE7000001694A1C02610878704700B50F
:1010E0008FB0CDE901310021059105497944CDE961
:1010F000031011466846FFF74BFB0FB000BD000020
:10110000E5FFFFFF0A6802F8010B0A607047D1E9AA
:1011100000239A4202D2531C0B601070704710B526
:10112000436913B1AFF3008001E0FFF781FA0120BA
:1011300010BD127800F124010A7000224A700122C9
:10114000EDE711684FF0FF32E9E70000074B70B59B
:101150000D467B44FFF7C3FF0446284600F068F9BC
:1011600010B14FF0FF3070BD204670BD91020100FC
:101170002DE9F05F824615468B4600270AF10104EF
:10118000B9460078302801D09DB113E014F8010B66
:101190000127782803D0582801D045B10AE00DB1C5
:1011A000102D07D1002714F8010B102502E00825A7
:1011B00000E00A250026B0460EE005FB080005FB0E
:1011C00006F101271FFA80F801EB1046B6F5803FC3
:1011D00000D3B94614F8010B294600F01BF900288A
:1011E000EBDABBF1000F05D00FB1641E00E05446EE
:1011F000CBF80040B9F1000F06D0FFF74FF90221FC
:101200000160C81EBDE8F09F48EA0640FAE700000A
:1012100010B542485421FFF77FFD41485421FFF7A4
:101220007BFD40485421FFF777FD3F493B483C4A4E
:101230003F4B08603D490A603A491960531C0365F9
:10124000481C1065012008653B48344A39A17844A0
:1012500000F032FA20B9384878440A3800F0C8FA69
:1012600037482F4A35A1784400F026FA20B934488F
:1012700078440A3800F0BCFA32482A4A2FA1784450
:1012800000F01AFA20B92F4878440A3800F0B0FA72
:1012900040232248DC000021224600F0EAF920B178
:1012A00025487844543800F0A3FA1D4822464023CC
:1012B000002100F0DEF920B121487844543800F0D4
:1012C00097FA184822461023002100F0D2F900288E
:1012D00006D01C487844BDE81040563800F088BA63
:1012E00010BD104870B5006D20F001040B4800F0EF
:1012F00059FA0B4800F056FA0A4800F053FA09E090
:10130000206D20F00105204600F04CFA204610F038
:1013100077F82C46002CF3D170BD0000509C0020C3
:10132000A49C0020F89C00207C0B0020800B002057
:10133000840B0020720000002C9C06007700000047
:101340001A9C0600099C0600014900F059BA0000E9
:10135000D89D002070B50C46016800204A1C3ED084
:101360003C22B1FBF2F302FB1313B1FBF2F1236059
:10137000B1FBF2F302FB1313B1FBF2F1182263602D
:10138000B1FBF2F302FB1313B1FBF2F146F2E032D0
:101390000A440721A360B2FBF1F301FB132140F2E1
:1013A000B553B2FBF3F5A161B2FBF3F103FB1522D8
:1013B0008900B2F5B77F08D39B10521EB2FBF3F53C
:1013C0002944B2FBF3F503FB15220F4BE261616187
:1013D00089077B440CD03B2A0AD3521C08E02C21FD
:1013E0002046FFF799FC0120E0600AE0521A401CF9
:1013F000195C9142FAD9521CC4E903204FF0FF3026
:101400002062204670BD0000AB9B0600004870477C
:10141000989D00203A2800D2303820F02002412A3E
:1014200001D3A2F13700884201D34FF0FF3070475B
:10143000007B00F08000704770B50D4601461446F1
:10144000D36850692A4608F049FA002807DA411C97
:1014500007D0E16820F0004041F48041E160281AA3
:1014600070BD204600F0A4FB4FF0FF3070BDC16896
:101470000022026021F4805141F0400111F4C06F5C
:10148000C16001D08260704702694168891AC269EF
:10149000891A816070472DE9F0470446C06840F41E
:1014A0008000E060010312D520F40020E060810696
:1014B00006D4E26A61688A4200D80A46511A21605D
:1014C00040F40010E06094F82500BDE8F08720F4B7
:1014D0000010E060800602D5204600F0C0FBE06806
:1014E00042F281014FF0FF390140012903D020462B
:1014F00000F05EFBB6E02168002600290ADAC94345
:1015000040F480502160C4E902606068411C616061
:101510000078DAE744F2400108420CD020F4A04001
:1015200040F040002660E06021696068401AE1698F
:10153000401AA06096E0216991B9C00310D4E06917
:1015400025F0CBFD2061B0B1E06840F4006010F4FC
:10155000407FE06002D140F48070E060206960600C
:10156000E068D4F814A0C1061AD5C0030ED52046F1
:1015700000F052FB14E004F1240020610120E0613E
:10158000E06820F4407040F48060E6E7216960681C
:10159000401AA1690144504608F0C3F90028A6DBAF
:1015A000E068C0032AD56168E06A884200D808462E
:1015B0002169451AE069471B1BD02046D4F81880E2
:1015C00000F02AFB08EB05015046C4F8188008F02B
:1015D000A8F900288BDBE06840F40030E0600002EE
:1015E00002D5A0692844A061E1692069C91B45189A
:1015F0000DE0204600F010FBE769F5E7256961681A
:10160000D4E90607491BE56208446560A061E0680B
:1016100020F0100010F4C06FE06002D0204600F00F
:101620003FFBE06840F48050C4E90260000205D549
:101630002069E06260606FF0010046E722463946AB
:101640002846FFF7F9FE411C0CD02918E16258B179
:10165000401E2060681C6060E06840F40030E0607C
:10166000287832E7484630E765602046FFF7FFFEFE
:10167000F8E770B5C468A50713D0650211D4B2F5B8
:10168000807F09D0B2F5007F06D0B2F5806F08D117
:10169000012300F1240106E05D1E6FF07F46B54294
:1016A00001D3012070BD0161C361416024F4706108
:1016B0001143C160002070BD2DE9F0410C46074682
:1016C0001646104600F06EF82078611C61280AD09A
:1016D000722802D077283CD102E00125002405E0E1
:1016E0000225042402E0082448F2020511F8010B47
:1016F0002B2806D0622809D011F8010C74280AD0D2
:101700000BE045F0030544F00204EFE745F0040563
:1017100044F00104EAE744F010043846214608F09A
:101720008DF8411C15D00021316171604FF40071BA
:10173000F560F1617061200704D530460222002176
:1017400000F0BAF9306D40F0010030653046BDE878
:10175000F0810020FBE72DE9F0410D460646104CD4
:10176000206DC10704D0410804D020F00104F7E740
:1017700022460EE0542025F0B0FC07000ED0206D6C
:1017800047F001010843542120653846FFF7C4FAA9
:101790003A4629463046BDE8F0418DE70020D6E7BD
:1017A000509C00202DE9F04704464FF000094FF00F
:1017B000FF37C568D4E90486A80707D0204600F0A3
:1017C0002BFA304608F016F8002802DA3846BDE851
:1017D000F087280502D540460FF012FE4C21204626
:1017E000FFF79AFA206D20F0010020654846EEE7E9
:1017F00010B500F07DFABDE8104000F073BA0000AB
:10180000F0B50D46044685B0FFF700FE006994E888
:10181000C0106369016803F26C730A188168CDE92E
:101820000363CDE901C7E36801440093C66A2369F5
:10183000406A03FB0613A16901FB0022284603A1AD
:1018400000F038F805B02846F0BD000025732025CB
:101850007325336420252E32643A252E32643A25CE
:101860002E32642025640A007546FFF7CDFBAE4694
:1018700005006946534620F00700854618B020B59C
:10188000FEF75EFDBDE820404FF000064FF0000778
:101890004FF000084FF0000B21F00701AC46ACE818
:1018A000C009ACE8C009ACE8C009ACE8C0098D4685
:1018B000704700000FB41CB5084B06AA7B4469466C
:1018C00000900598FFF70BFC044600206946FFF7DF
:1018D00019FC20461CBC5DF814FB000045F8FFFF16
:1018E0002DE9F04705460C46C86820F4201040F466
:1018F0008000C860800602D5084600F0B0F9E068B4
:1019000041F282014FF0FF390140022903D0204605
:1019100000F04EF9B5E000F42041B1F5004F0FD1D1
:10192000C00306D56168E06A884200D80846606056
:1019300006E02069E0626060606907F067FFA0610F
:10194000A0680022EEB200280DDAE1688B050AD407
:10195000C043A06041F490302260E0606068411CA8
:1019600061600670A5E0E0689046226040F4005097
:10197000E060206968BB606907F057FF012704F148
:101980002405A0B1A08910F4407F08D0E06925F0BB
:10199000A4FB206118B1E06840F4006016E0E76144
:1019A0002561E06820F4407040F480600EE0E0695A
:1019B00025F093FB00282061F1D0E06840F400603E
:1019C00010F4407FE06002D140F48070E060206954
:1019D0006060E06825696FF0010AC1051FD5616884
:1019E000E06A884200D80846411B04D022462846B7
:1019F00000F0E8F8F0BBE068010203D5E562C4E955
:101A0000015854E0691CE1626160E16940F4803092
:101A1000491EC4E9021030462E70BDE8F08701026D
:101A200002D500F480320AE06068411C61600670F3
:101A3000E0680A2E40F48030E06006D00022E16ABF
:101A40006068814203D90B4602E00122F7E70346B2
:101A5000A7895B1B7F0503D4E7699F4200DDE2B1E4
:101A6000814200D80146E5620F1AC4E90158002BF3
:101A700009DD00E005E022461946284600F0A2F8FC
:101A800008B14846C9E747B1A069E5626560C01B77
:101A9000A061E06840F01000E060E068000208D556
:101AA0006168A069E562491B08446560A061504611
:101AB000B3E73046B1E700002DE9F0410446164691
:101AC0000D464769007B80072ED0384607F0ADFEF3
:101AD00050BB3EB3012E02D0022E25D104E0204699
:101AE00000F074FA05441DE0384607F08FFEE16807
:101AF000002841F01001E16005DA204600F058F8B6
:101B00000120BDE8F081C9030BD56268E16A91420A
:101B100000D81146A26911442269891A814200DD68
:101B200008460544002D01DA0220EAE7E16A606810
:101B3000E268814206D29103E06203D522F40031CB
:101B400041F01002A6690027AE4213DCE16A81422F
:101B500001D90B4600E0034603EB060C2369ACEB0E
:101B6000030CAC4506DD814201D98C4600E0844679
:101B70009C4505D1A760276042F02000A5620DE0DA
:101B8000AD1BE669AE1B8142A66000D90846C01AAB
:101B9000281A20605819606022F02000034908408C
:101BA000E060002084F84870ABE70000BFCFD7FFAB
:101BB000C16821F4001141F08001C1600021816001
:101BC000016070472DE9F047814614460E464FF0FC
:101BD000FF383248D5685769054209D03846A169AF
:101BE00007F09FFE002811DB2C48C0430540E5604C
:101BF0002B4632464946384607F0A1FEA16920F03F
:101C00000042B21A11440028A16103D02046FFF718
:101C1000CFFF4046BDE8F08770B504460569C06A4D
:101C20006168884200D80846E16821F42011E1602B
:101C3000C90312D5A84208D02246411B2846FFF707
:101C4000C1FF10B14FF0FF3070BD0020E562C4E964
:101C50000150E06820F48030E060002070BD10B5D5
:101C60000446C06820F02000E060A16AA0698842B4
:101C70000DD02046FFF7D0FFE06820F4405040F040
:101C80001000E060A06AA0612069E062606044F238
:101C90004001E0688843E06010BD000010000200D1
:101CA00070B5054640F202260A4C0FE094F8500049
:101CB000C00708D0AC4206D0E06836EA000002D186
:101CC000204600F051F9206D20F00104002CEDD1E8
:101CD00070BD0000509C00200446AFF300802046F9
:101CE000FEF71AFB002801D007F08EBD70470000F8
:101CF00010B5014602A000F08AF9012010BD0000D5
:101D000053494752545245443A20526564697265BA
:101D100063743A2063616E2774206F70656E3A2099
:101D20000000000070B5044685690068C10601D551
:101D3000302600E02026C00707D070BDD4E901217D
:101D400030469047206A401C20626D1EF6D570BD5B
:101D500070B5044685690078C00707D170BDD4E925
:101D6000012120209047206A401C20626D1EF6D57C
:101D700070BD09684A0501D540B27047C905FCD558
:101D800000B2704709684A0501D5C0B27047C9055D
:101D9000FCD580B2704711680268006A530501D50E
:101DA00008700AE0D30501D5088006E0130603D5C4
:101DB000C217C1E9000200E008600120704700007E
:101DC0002DE9FF5F15468A460446DFF8AC80F844EB
:101DD0000027D8E900103E46CDE9001010E03AF89F
:101DE00016106A4602A800F011FD411C07D02178A8
:101DF000890603D5E269391891420DD80744761C4B
:101E00002078800602D5E069B84205DDAE42E6DB07
:101E10003AF816000028E2D1A069C01BA061204654
:101E2000FFF780FFD8E90010CDE90010002017E08F
:101E30003AF818106A4602A800F0E8FCB0F1FF3F3B
:101E400081460BD000250DF1080B05E0D4E90121F6
:101E50001BF8050090476D1C4D45F7D308F10100B4
:101E6000B0428046E4DB206A384420622046FFF717
:101E70006FFFBDE8FF9F0000BE9106002DE9F04115
:101E80008046D21D22F007020025D2E90002F52982
:101E900015A614D0011E72F1000106DA0023D0EB62
:101EA000030063EB020211A608E0D8F800108B07CC
:101EB00001D50FA602E0490701D50EA6012511465E
:101EC000002408F1240704E000F0BAF830323A5553
:101ED000641C50EA0102F7D12B46324621464046A7
:101EE000BDE8F041FFF79CB8000000002D000000A5
:101EF0002B0000002000000030B4002100F1240479
:101F000008E002F00705D208303542EA4372DB08E8
:101F10006554491C52EA0305F3D10468002310A25A
:101F2000250708D504F020040C4304D0C46901231C
:101F30000CA2641EC46130BCFFF772B810B5044631
:101F400021461068FFF71EFF02462046BDE81040FC
:101F50000023D1E7D21D22F00701D1E90023CBE70E
:101F6000000000003000000070B50446C068810722
:101F700013D0800601D5A56A04E0A1696068084411
:101F80002169451A2046FFF747FE002206462946EA
:101F90002046FFF791FD304670BD002070BD70B542
:101FA00010B1BDE87040DFE70025074C6E1E07E06A
:101FB0002046FFF7D9FF00B13546206D20F001041F
:101FC000002CF5D1284670BD509C002010B501466C
:101FD000C268900703D0900607D5886A0AE0FEF72A
:101FE0005DFA01210160881E10BD8B6948681844A4
:101FF0000B69C01A91F848301BB191F84910401A8A
:1020000010BD1103FCD50028FADD401E10BD70B5CF
:1020100005460C460A2000E06D1C07F0B3FC35B104
:1020200028780028F8D102E0641C07F0ABFC14B15A
:1020300020780028F8D1BDE870400A2007F0A2BC43
:1020400030B5B0F10A024FEA900E71F100034EEA8A
:10205000817EB0EB0E0061EB91014FEA101E4EEA5B
:10206000017E10EB0E0041EB11114FEA102E4EEAEB
:10207000016E10EB0E0041EB11214FEA104E4EEABB
:10208000014E10EB0E0041EB1141401841F10001EF
:102090004FEAD00040EA41704FEAD10110EB8005D1
:1020A0004FEA810444EA907444EB01046D1944EB57
:1020B0000404521BA3414FF0000348BF0A3200D56D
:1020C00030BD401C41F1000130BD70472DE9FF4F8C
:1020D0000C461E464FF0FF378BB0D2E90001DDF809
:1020E00060800A908A46C1F30A5505B93D46002131
:1020F00008464FF00000BAF1000F00F4400005DA86
:1021000000EB80004FF4400101EA50004FEA905983
:10211000B9F1010F00DDB9460A9850EA4A000ED025
:1021200044F61050A5F2FF3545432F14B8F1000FC7
:102130001ED07542291E1EDDC9F100021CE0B8F157
:10214000010F4FF0000001D0302103E0F24305E021
:102150002154401CB042FBDB3046002200212154B8
:102160000B99C1F80880C1E900200FB0BDE8F08FDD
:10217000BD1B6D1CDEE74A4600DA694206A800F086
:10218000A5FB06AB93E8070003AB83E807005046C6
:102190000A9900F009FC8DE80700A0F500501F38EF
:1021A00000900398002D09DD42F21F014A460844C1
:1021B00003A90390684600F068FE08E0A0F500500F
:1021C0004A461F3803A90390684600F072FE8DE866
:1021D00007000004000C03D04FF0FF30410800E07E
:1021E0001046B8F1000F03D00022009215461EE001
:1021F000751E05D4FFF724FF303262556D1EF9D5E8
:10220000B3460122084302D000227F1C04E020785C
:10221000302801D100227F1E002A099786D01DE0B8
:10222000112D07DAFFF70CFF303262556D1C50EAB2
:102230000102F5D1084302D00098C8B10EE0002198
:10224000681E05E0235C625C63542254401E491CF6
:102250008142F7DBAB46A81B401E0990002004F822
:102260000B000B98099AC0F80880C0E9002B7CE7A6
:1022700011264FF0000859E72DE9F04F8846044633
:10228000D21D22F0070191B0D1E90001CDE90A0188
:1022900005F0C4FC02460B98C00F01D02D2007E0CA
:1022A0002068810701D52B2002E0202101EAC0002F
:1022B000032A099001D0072A05DB03464146204640
:1022C00000F0C4FA0BE12078800601D5E06900E057
:1022D0000620B8F1650F814606D0B8F1660F18D018
:1022E000B8F1670F70D131E00020B9F1110F009003
:1022F00001DB112301E009F101030AAA01A90CA8DD
:10230000FFF7E4FEDDE90C70002609F101058346C4
:1023100047E001204B4600904FF000470AAA01A970
:102320000CA8FFF7D3FEDDE90DB00C995D46002641
:1023300010B909F101000D18B9EB050003D4C0F183
:10234000FF3609F10105A5EB09002BE0B9F1010FFA
:1023500001DA4FF001090020B9F1110F0090484651
:1023600001DD112300E003460AAA01A90CA8FFF72A
:10237000ADFEDDE90C704D4600268346207800074F
:102380000AD4AB4500DA5D4601A8012D04DD4119F0
:1023900011F8011C302907D04F4502DA17F1040F5C
:1023A00004DA012082460FE06D1EEEE7002F02DC0A
:1023B000ED1B3E4403E0781CA84200DD7D1CB81BE9
:1023C00000F1010A4FF000472078000703D4AA4526
:1023D00001DB4FF0FF3A0021B7F1004F0DF1430848
:1023E0008DF8431024D002202B23002F01DA7F42E6
:1023F0002D230A21021EA0F1010000DC5FB197FB32
:10240000F1FC97FBF1F201FB1C7C17460CF1300C40
:1024100008F801CDEEE7A8F1010003702188090555
:1024200001D5452100E06521A0F1010800F8011C5B
:1024300009980FA9A1EB0807FF1D00B10120411960
:1024400001EBEA70A1693844081A401EA0612078A7
:10245000C00602D42046FFF765FC099828B1D4E9EC
:1024600001219047206A401C20622078C00622D5B6
:102470002046FFF757FC1EE0002E04DBB34502DDCB
:1024800001A8805D00E03020D4E901219047206A56
:10249000401C2062761CAAF101005FEA000A0AD102
:1024A000FEF7B4FFC0680168405CD4E901219047A1
:1024B000206A401C2062281EA5F10105DCDC07E033
:1024C000D4E9012118F8010B9047206A401C2062D2
:1024D000381EA7F10107F3DC2046FFF739FC032083
:1024E00011B043E62DE9F04F04460D46D21D22F00F
:1024F000070089B0D0E9009248461746394605F0F2
:102500008DFB0246F80F01D02D2307E020688107DC
:1025100001D52B2302E0202101EAC0038DF82030F1
:102520000BB1012000E00020032A824601D0072AD7
:1025300004DB2946204600F089F93DE12078800639
:1025400001D40D2500E0E569C7F30A560D2D49DADF
:1025500000214FEA175B08464FF00000002F00F4FF
:10256000400007DA00EB80004FF4400100EBD07030
:1025700001EA60008115012901DD4FF0FF310022E1
:102580004FEA850CBCF1180F06D31346ACF11800C6
:102590004FF08052C24003E04FF4801323FA0CF353
:1025A0000CF10C0CBCF1200F04D3ACF1200C09FA97
:1025B0000CF001E007FA0CF000294FF0004801DDB3
:1025C00018B90FE00ED140450CD319EB02095F4159
:1025D00021B9404502D19F4329EA0209BBEB175FAD
:1025E00000D0761C2088000502D57B48784402E0A4
:1025F00079487844193808AA302302F80A30037C55
:102600000AF10101002E0AF1020A53546A4602DC63
:102610004FF0300101E04FF031014FF001088DF82B
:10262000001002D0A6F2FF3603E059EA470100D0BD
:102630006A4E002D02DC2178090704D54FF002080C
:102640002E218DF80110C44600210BE0C7F303438F
:102650003F01C35C491C6D1E02F80830052908F1D2
:10266000010801DA002DF1DC00210CE000EB197308
:10267000491C1B786D1E082902F808304FEA091919
:1026800008F1010801DA002DF0DC2178890602D575
:1026900014E0A8F10108E04505DD02EB080111F89E
:1026A000011C3029F5D0B8F1000F07DD02EB08015D
:1026B00011F8011C2E2901D1A8F10108002D05DD1A
:1026C0003E2102F808106D1E08F10108407C002E22
:1026D00002F8080008F1010804DA2D20764202F819
:1026E000080002E02B2002F808000A214FF47A705B
:1026F000864208F101080BDB96FBF0F3303302F859
:10270000083096FBF0F308F1010800FB136601E0C6
:10271000642E0CDB642096FBF0F3303302F80830B3
:1027200096FBF0F308F1010800FB136601E00A2EA6
:1027300006DB96FBF1F0303002F8080008F10108E2
:1027400096FBF1F001FB1060303002F80800A1693F
:1027500008F1010808EB050202EB0A00081AA06163
:102760002078C00602D42046FFF7DCFA216A08AEC2
:1027700001EB0A00206204E0D4E9012116F8010B04
:102780009047BAF1010AF7D22078C00602D5204658
:10279000FFF7C8FA6E4609E016F8010B3E280FD085
:1027A000D4E901219047206A401C2062B8F1010859
:1027B000F2D22046FFF7CCFA09B00320BDE8F08F33
:1027C000206A2844206203E0D4E9012130209047A8
:1027D0006D1EEBD3F8E70000BB89060002FCFFFF8B
:1027E00010B5436913B1AFF3008001E0FFF7E8FAD9
:1027F000012010BD128800F1240182840022C284CD
:102800000122EDE711684FF0FF32E9E770B5164697
:102810000C460546FEF7FCFB036893F8010101280E
:1028200006D0FF2C0FD8185D68B101202C7070BD48
:10283000D3F807013246214603F207130344284622
:10284000BDE8704018474FF0FF3070BD2DE9F041F2
:102850001F46044603260168072A01F4006004DBD2
:1028600008B116A505E016A503E008B115A500E01E
:1028700015A521F010002060A069C01EA0610FB155
:10288000401EA0612046FFF74DFA4FB1D4E9012167
:1028900038469047206A401C2062C01C206206E037
:1028A000206AFAE7D4E9012115F8010B9047761E5A
:1028B000F8D22046FFF74CFABDE8F0814E414E00B9
:1028C0006E616E00494E4600696E66002DE9F04764
:1028D000814616468AB0334878440DC88DE80D000D
:1028E00030487844801C03AC0DC884E80D0041F6E4
:1028F0009B300844372190FBF1F290FBF1F5A5F1F4
:10290000800501FB12041B3C02D56442012000E05B
:102910000020DFF890A080460027FA44AAF1BE0A02
:102920000DE0E00709D03246684607EB47010AEBA5
:10293000810100F0BEFA8DE8070064107F1C002CB6
:10294000EFD1184F7F44AC3F18E0E80714D007EBF5
:1029500004100DF1180A90E80E008AE80E00C06815
:10296000F04201D198190890324606A903A800F058
:10297000A0FA03AB83E807006D10641C002DE4D1BE
:1029800032466946B8F1000F03A802D000F07DFA84
:1029900001E000F08EFAC9E90001C9F808200AB088
:1029A000BDE8F087608706005FEA400C08BF91F041
:1029B000000F4FEA8C234FEAC12243EA51514FEAFC
:1029C0001C5018BF00F5F0404FEA300018BF41F02E
:1029D00000415FEA6C5C00F02980BCF1FF3F08BF5A
:1029E00040F080407047130C06BF12044FF0100CEB
:1029F0004FF0000C130E04BF12020CF1080C130F61
:102A000004BF12010CF1040C930F04BF92000CF1EF
:102A1000020CD30F04BF52000CF1010C11464FF011
:102A20000002A0F11F00A0EB0C00704711F0004F56
:102A300008BF704731F000413FF4D5AF0B0C06BF23
:102A400009044FF0100C4FF0000C0B0E04BF0902EC
:102A50000CF1080C0B0F04BF09010CF1040C8B0FD7
:102A600004BF89000CF1020CCB0F04BF49000CF12C
:102A7000010CCCF12003A0EB0C0022FA03F302FAC4
:102A80000CF241EA030100F10100704720F07F4C95
:102A900080EA030023F07F47ACEB070303F57C5388
:102AA00000F0004003F1FF032DE980494FEA154B88
:102AB00009B44FEA144325EA0B4E24EA03480FF207
:102AC000042606EB132749083E785FEA320203FB2F
:102AD0000667C7F5000707FB06F64FEA54374FEACB
:102AE000D64606F1020607FB066CCCF1005C4FEA05
:102AF0001C472CEA074C07FB06F40CFB06F504EB1D
:102B000015464FEA961634BF00204FF000404FEABA
:102B1000D13706FB07FC4FEA1C4C0CFB0BF7D21B12
:102B200003FB0CF761EB07010CFB0EF7B0EB074062
:102B300072EB17420CFB08F734BFA2EB0742B2EB73
:102B4000074261EB17414FEA0C444FEA910706FB3D
:102B500007FC4FEA1C4C0CFB0BF7B0EBC74072EBC9
:102B6000573203FB0CF734BFA2EBC742B2EBC742AC
:102B700061EB57310CFB0EF7B0EBC70072EB5772ED
:102B80000CFB08F734BFA2EBC702B2EBC70261EB44
:102B90005771039F4FEA816141EA921104EBCC0423
:102BA0004FEAD1374FEA826206FB07FC42EA9012F5
:102BB0004FEA80604FEA1C4C0CFB0BF7D21B03FB67
:102BC0000CF761EB07010CFB0EF7B0EB074072EB63
:102BD00017420CFB08F734BFA2EB0742B2EB0742E7
:102BE00061EB17414FEA8C554FEA910704EB9C24A7
:102BF00006FB07FC4FEA1C4C0CFB0BF7B0EBC74085
:102C000072EB573203FB0CF734BFA2EBC742B2EBB7
:102C1000C74261EB57310CFB0EF7B0EBC70072EB0C
:102C200057720CFB08F734BFA2EBC702B2EBC70226
:102C300061EB577115EB4C254FEA816141EA921126
:102C40004FEA82624FEAD13742EA901206FB07FC54
:102C500044F100044FEA80604FEA1C4C0CFB0BF778
:102C6000D21B03FB0CF761EB07010CFB0EF7B0EB7B
:102C7000074072EB17420CFB08F734BFA2EB074288
:102C8000B2EB074261EB174115EB1C154FEA81319E
:102C900041EA92414FEA823242EA90424FEA803062
:102CA0004FEA0C7644F1000448EA03434EEA0B482D
:102CB0004FF0000EB2EB080C71EB030724BF624625
:102CC00039464EEB0E0E4FF0000B001852414941B1
:102CD0004BEB0B0BB2EB080C71EB03077BF1000B1A
:102CE00024BF624639464EEB0E0E4FF0000B001823
:102CF000524149414BEB0B0BB2EB080C71EB030754
:102D00007BF1000B24BF624639464EEB0E0E51EAB2
:102D1000020718BF46F0010616EB0E7655F10002C9
:102D200054F1000103D5BDE88901BDE80088BDE884
:102D30008901BDE80048B619524141EB0101A3F1F8
:102D40000103704780807F7E7D7C7B7A79787776FF
:102D500076757473727171706F6E6E6D6C6C6B6A78
:102D60006A69686867666665646463636261616016
:102D7000605F5F5E5E5D5D5C5C5B5B5A5A59595893
:102D800058575756565555555454535352525251FD
:102D9000515050504F4F4F4E4E4D4D4D4C4C4C4B53
:102DA0004B4B4A4A4A49494948484847474747469A
:102DB00046464545454444444443434343424242D6
:102DC00042414141002B26D4770021D01CB54FEA67
:102DD000370703B44FF010004FF010014FF0000020
:102DE0000FBCBDE810400BF1010BBBF1010F08BF98
:102DF0005FEA170722BF12F1010211F101014FF042
:102E0000004143F1000300F0004043EA0000704736
:102E1000F9D35708DAE746EA064613F1400F4FEABE
:102E200016461FDD13F1200FDFBF16430A460021AF
:102E300020335B42C8D0C3F1200746EA064602FAB7
:102E400007F74FEA164646EA0706C3F1200722FABB
:102E500003F201FA07F721FA03F14FF0000342EA07
:102E60000702B1E746EA020646EA06464FEA164678
:102E700046EA0106BCBF46EA0646360C4FF00003A0
:102E80004FF000024FF000019EE72DE9C048934645
:102E900030B491E8380007C831EA400C48BF34EA42
:102EA000430C03D5FFF7F2FDFFF78CFFF0BCBDE844
:102EB00000882DE9C048934630B491E8380007C82F
:102EC00010F0804F08BF13F0804F03D100F005F8D9
:102ED000FFF778FFF0BCBDE8008820F07F4780EA6C
:102EE000030023F07F4C07EB0C03A3F57C5300F0A9
:102EF0000040A3F1FE0392F0000F00F0B38095F0C4
:102F0000000F00F077802DE901494FEA11404FEAA8
:102F1000144621EA004800FB06FC24EA064708FBA9
:102F200006F607FB08F800FB07F718EB06484CEB22
:102F3000164C4FEA124B18EB07484FEA15464CEB7C
:102F4000174022EA0B4E0BFB06FC25EA06470EFB58
:102F500006F607FB0EFE0BFB07F71EEB064E4CEBCF
:102F6000164C4FF000061EEB074E4CEB174B18EBC0
:102F70000B0840F1000018EB0E0B58EB000840F175
:102F800000008F1A4FF000013CBFC943661B14BFFD
:102F9000B5EB040C00213CBFC943F61B4FEA1744B4
:102FA0004EEA8E0E27EA04454FEA1C4704FB0762EF
:102FB0002CEA074C05FB07F70CFB05F604FB0CFCA1
:102FC00016EB074642EB174216EB0C4642EB1C424F
:102FD0001BEB060658EB0202414146EA9E0601D56C
:102FE000BDE80189B619524141EB0101A3F101038A
:102FF000BDE801894FEA14454FEA114724EA054626
:1030000021EA074C05FB07F406FB07F70CFB06F16A
:1030100005FB0CFC11EB074144EB17444FEA124748
:1030200011EB0C4144EB1C4422EA074C05FB07F270
:1030300006FB07F70CFB06F605FB0CFC16EB074638
:1030400042EB174216EB0C4642EB1C456A1854F152
:10305000000148BF7047B619524141EB0101A3F18D
:103060000103704795F0000F37D04FEA11424FEA45
:10307000144721EA024624EA074C02FB07F106FB4B
:1030800007F70CFB06F402FB0CFC14EB074441EBC6
:1030900017414FEA154714EB0C4441EB1C4125EA5C
:1030A000074C02FB07F506FB07F70CFB06F602FBD5
:1030B0000CFC16EB074645EB174516EB0C4645EBAB
:1030C0001C42121951F1000148BF7047B619524114
:1030D00041EB0101A3F1010370474FEA14454FEAA8
:1030E000114724EA054621EA074C05FB07F106FBD8
:1030F00007F70CFB06F24FF0000605FB0CFC12EB89
:10310000074241EB174112EB0C4251EB1C4148BF07
:103110007047921841EB0101A3F10103704710B50C
:10312000FDF720F92EF098FF002010BD54494A68A1
:1031300022F440324A604A6843681A434A6002688F
:10314000526822F4807203685A6002685368026908
:1031500043EA022203685A600268526822F0407211
:1031600003685A600268526883681A4303685A60A9
:103170000268926822F4006203689A6002689268AA
:10318000C3681A4303689A603E4B826A9A4218D019
:103190000268926822F0706203689A60026892681E
:1031A000836A1A4303689A600268926822F0405268
:1031B00003689A6002689268C36A1A4303689A6057
:1031C0000BE00268926822F0706203689A600268FD
:1031D000926822F0405203689A600268926822F076
:1031E000020203689A6002689368826943EA4202B5
:1031F00003689A60026AA2B10268526842F40062EF
:1032000003685A600268526822F4604203685A6098
:1032100002685368426A521E43EA423203685A60A7
:1032200005E00268526822F4006203685A6002688E
:10323000D26A22F470020368DA620268D36A828B6F
:10324000521E43EA02520368DA620268926822F46C
:10325000007203689A6002689368026B43EA422234
:1032600003689A600268926822F4806203689A6038
:1032700002689368426943EA822203689A60704751
:10328000002301400100000F10B529F001FF0348A1
:1032900000F0EEFE29F026FF10BD000018160020F9
:1032A00010B529F0F5FE034800F0E2FE29F01AFF00
:1032B00010BD0000E818002010B529F0E9FE034811
:1032C00000F0D6FE29F00EFF10BD000048190020C6
:1032D00010B529F0DDFE034800F0CAFE29F002FF18
:1032E00010BD00004417002010B529F0D1FE03489E
:1032F00000F0BEFE29F0F6FE10BD0000081500200B
:1033000010B529F0C5FE034800F0B2FE29F0EAFE30
:1033100010BD0000A41700200146087810381823BB
:10332000B0FBF3F20848805CC865032A05D9086839
:103330006FF30900001D886503E008686FF309005A
:103340008865886D7047000040AF06080146002080
:103350008A6A8B69CBB932B1012A0DD0022A03D017
:10336000032A10D10EE000BFCB6A03F08073B3F1E3
:10337000807F00D1012007E0CB6AB3F1C07F00D18C
:10338000012001E000E000BF34E08B69B3F5005F8D
:103390001AD132B1012A07D0022A03D0032A11D14F
:1033A0000AE000BF01200EE0CB6A03F08073B3F1A6
:1033B000807F00D1012006E0CB6AB3F1C07F00D14D
:1033C000012000E000BF15E032B1012A05D0022A39
:1033D00004D0032A0CD103E000BF00BF012008E0A5
:1033E000CB6A03F08073B3F1807F00D1012000E04D
:1033F00000BF00BF70472DE9F04106460F46144656
:103400002546E01704EB907082103946304603F0F1
:10341000D5FC0020BDE8F08130B50468246824F4B0
:10342000802405682C60046863608468402C04D1A3
:103430000468A2600468E16003E00468A1600468B5
:10344000E26030BD2DE9F04106460F4614462546A0
:10345000E01704EB907082103946304603F0F4FC1C
:103460000020BDE8F08110B529F012FE012001F026
:10347000AFF929F037FE10BD10B529F009FE4FF461
:10348000806001F0A5F94FF4006001F0A1F94FF45C
:10349000805001F09DF94FF4005001F099F94FF47C
:1034A000804001F095F94FF4004001F091F929F0C6
:1034B00019FE10BD10B529F0EBFD022001F088F9CE
:1034C00029F010FE10BD10B529F0E2FD042001F036
:1034D0007FF929F007FE10BD10B529F0D9FD0820AD
:1034E00001F076F929F0FEFD10BD10B529F0D0FDF0
:1034F000102001F06DF929F0F5FD10BD10B529F08F
:10350000C7FD202001F064F9402001F061F980201E
:1035100001F05EF94FF4807001F05AF94FF4007039
:1035200001F056F929F0DEFD10BD000010B50022B3
:1035300001B909E0012901D10A0205E0022901D1FE
:103540000A0201E04FF440720E4B1B6823F44073F3
:103550000C4C236023461B681343236023461B68DF
:1035600023F0F803236023461B68022444EAC004C6
:103570002343044C236023461B6843F480332360B9
:1035800010BD0000103C02401C48006800F40070B0
:10359000B0B11A48006820F400701849086000BFF4
:1035A0000846006840F4006008600846006820F49F
:1035B0000060086000BF0846006840F400700860C2
:1035C0000E48006800F48060B0B10C48006820F438
:1035D00080600A49086000BF0846006840F48050D7
:1035E00008600846006820F48050086000BF084664
:1035F000006840F48060086070470000003C0240B2
:103600000A4A126822F44072084B1A601A4612687D
:1036100042F004021A601A4612684FF4803343EAFB
:1036200000231A43014B1A6070470000103C02400F
:10363000074A126822F44072054B1A601A46126853
:103640001A601A46126842F001021A60017070474F
:10365000103C024010B50949096821F44071074C3B
:1036600021602146096841F44071216021460968C2
:1036700041F0010121600260436010BD103C024036
:10368000084A126822F44072064B1A601A46126801
:1036900042F480721A601A46126842F001021A60FF
:1036A00001807047103C0240084A126822F44072C0
:1036B000064B1A601A46126842F400721A601A46E3
:1036C000126842F001021A6001607047103C02402B
:1036D0002348006800F0100040B12248C06940F063
:1036E00010002049C86110201D4908601C4800686E
:1036F00000F0200040B11B48C06940F008001949A3
:10370000C8612020164908601548006800F0400094
:1037100040B11448C06940F004001249C86140201B
:103720000F4908600E48006800F0800040B10D4865
:10373000C06940F002000B49C86180200849086058
:103740000748006800F0020040B10648C06940F038
:1037500020000449C8610220014908607047000048
:103760000C3C0240309C002070B50446002500202F
:103770001449C86101F048F9054609E0601C38B1F8
:1037800024B101F041F9401BA04201D9032070BDD2
:103790000D48006800F480300028EFD10A48006826
:1037A00000F0010010B101200749086006480068D8
:1037B00000F0F20018B1FFF78BFF0120E7E70020CF
:1037C000E5E70000309C00200C3C024051B1820033
:1037D000A2F1C042126842F001038200A2F1C0428D
:1037E000136009E08200A2F1C0421268034B1A4044
:1037F0008300A3F1C0431A6070470000FEFF0F0072
:1038000030B50021002200230468A400A4F1C044C4
:103810002168444C2140D0E901452C43C5682C4324
:1038200005692C4345692C4385692C43C5692C43A4
:10383000056A2C43456A2C43856A2C43C56A2C4390
:10384000056B2C4321430468A400A4F1C04421600B
:103850008468082C0BD10468A400A4F1C044246837
:1038600044F040050468A400A4F1C0442560046845
:10387000641CA400A4F1C044226802F04042446BDE
:103880002468456B6D6844EA0514456BAD6844EAED
:103890000524456BAD8944EA0544456B2D8A44EA0D
:1038A0000554456B2D7D44EA0564456BAD692C4399
:1038B00022430468641CA400A4F1C0442260C46ACA
:1038C000B4F5804F24D10468A400A4F1C044D4F816
:1038D000043103F04043846B2468856B6D6844EACF
:1038E0000514856BAD6844EA0524856B2D8A44EA8E
:1038F0000554856B2D7D44EA0564856BAD692C43C9
:1039000023430468A400A4F1C044C4F8043107E0D0
:103910006FF070450468A400A4F1C044C4F80451D9
:1039200030BD00008000F7FF2DE9F04303460C4650
:103930001546202D02DA0120A84000E00020A0F169
:10394000010C0320A0EB541604F01F0153F82600CD
:1039500020FA01F76818202811DDC1F120004FEA94
:10396000E07800EBD8684FEA6818A0EB4819A6F198
:10397000010853F8288008FA09F848EA070707EA17
:103980000C00BDE8F0832DE9F04303460C461546D4
:10399000202D02DA0120A84000E00020A0F1010C57
:1039A0000320A0EB541604F01F0153F8260020FA60
:1039B00001F76818202811DDC1F120004FEAE078F6
:1039C00000EBD8684FEA6818A0EB4819A6F1010887
:1039D00053F8288008FA09F848EA070707EA0C00B4
:1039E000BDE8F083F0B50A4600210023002400BFA3
:1039F0003DE0012505FA01F3156805EA03049C4240
:103A000034D105684F000326BE40B54305601579E3
:103A10004E00B5400668354305601579012D02D08A
:103A20001579022D16D185684F000326BE40B54397
:103A3000856055794E00B540866835438560456898
:103A400001268E40B5434560456896798E40B6B2F2
:103A500035434560C5684F000326BE40B543C56089
:103A6000D5794E00B540C6683543C560491C10295C
:103A7000BFD3F0BDF0B5002300244D07ED0E02FAD0
:103A800005F3CE1000F1200555F826504E07F70E2D
:103A90000F26BE40B543CF1000F1200646F8275050
:103AA000CE1000F1200555F8265045EA0304CE104B
:103AB00000F1200545F82640F0BD00000146002039
:103AC0002F4A914203D2B1F1006F00D356E02D4A44
:103AD000914204D22A4A914201D301204EE02A4A5F
:103AE000914204D2274A914201D3022046E0274A5C
:103AF000914204D2244A914201D303203EE0244A59
:103B0000914204D2214A914201D3042036E0214A55
:103B1000914204D21E4A914201D305202EE01E4A52
:103B2000914204D21B4A914201D3062026E01B4A4F
:103B3000914204D2184A914201D307201EE0184A4C
:103B4000914204D2154A914201D3082016E0154A49
:103B5000914204D2124A914201D309200EE0124A46
:103B6000914204D20F4A914201D30A2006E0B1F1FA
:103B7000016F03D20C4A914200D30B207047000022
:103B8000004000080080000800C000080000010894
:103B900000000208000004080000060800000808F1
:103BA00000000A0800000C0800000E0838B50246A4
:103BB0000020009000BF92F83C00012801D10220B3
:103BC00038BD012082F83C0000BF0868092816D9DA
:103BD0001068C0680C780A3C04EB44050724AC402C
:103BE000A0431468E0600C780A3C04EB4404886845
:103BF000A0401468E46820431468E06013E0106893
:103C000000690C7804EB44050724AC40A043146819
:103C100020610C7804EB44048868A040146824698F
:103C20002043146820614868072817D21068406B49
:103C30000C79641E04EB84051F24AC40A043146877
:103C40006063088880B20C79641E04EB8404A04091
:103C50001468646B20431468606331E048680D2881
:103C600017D21068006B0C79E41F04EB84051F2445
:103C7000AC40A04314682063088880B20C79E41F2C
:103C800004EB8404A0401468246B20431468206370
:103C900016E01068C06A0C790D3C04EB84051F2403
:103CA000AC40A0431468E062088880B20C790D3CF7
:103CB00004EB8404A0401468E46A20431468E062C2
:103CC000194B1A4C1068A04206D10868122803D17B
:103CD000586840F480005860144C1068A0421CD111
:103CE0000868102802D00868112816D1586840F4D6
:103CF00000005860086810280FD10D4800680D4C6E
:103D0000B0FBF4F000EB80004000009002E000986F
:103D1000401E009000980028F9D100BF002082F8D2
:103D20003C0000BF00BF4BE70023014000200140E2
:103D30006C0B002040420F0001460868C06C7047C1
:103D400070B5044600250CB9012070BD1549A06A64
:103D5000884200D000BF206C30B90020606484F835
:103D60003C00204600F020F8206C00F0100088B9DC
:103D7000206C20F4885040F0020020642046FFF7B9
:103D8000D5F900206064206C20F0020040F00100B2
:103D9000206400E0012500BF002084F83C0000BF43
:103DA0002846D2E70100000F10B586B00446142162
:103DB00001A8FCF7B1FF1949206888422BD100BF48
:103DC000002000901648006840F480701449086094
:103DD0000846006800F48070009000BF00BF00BF7C
:103DE000002000900E481438006840F001000C4993
:103DF000143908600846006800F00100009000BF18
:103E000000BF20200190032002900020039001A910
:103E1000044800F0EBFC06B010BD0000002001409B
:103E2000443802400000024070B504460D460026AA
:103E30002068806800F4806078B12068806800F4B1
:103E4000807050B1206C40F02000206400BF002042
:103E500084F83C0000BF012070BD00F0D5FD06468F
:103E600012E0681C80B125B100F0CEFD801BA84295
:103E70000AD9206C40F00400206400BF002084F8C0
:103E80003C0000BF0320E7E72068006800F0020064
:103E90000228E6D16FF0120021680860206C40F41F
:103EA000007020642068806800F04050B8B9A069B4
:103EB000A8B92068C06A00F4700020B1206880684A
:103EC00000F4806058B9206C20F480702064206C6D
:103ED00000F4805018B9206C40F0010020640020EC
:103EE000BAE7000008B501460020009000BF91F835
:103EF0003C00012801D1022008BD012081F83C00CE
:103F000000BF0868806800F00100A0B908688068F8
:103F100040F001000B6898602E4800682E4BB0FB03
:103F2000F3F000EB4000009002E00098401E00908B
:103F300000980028F9D10868806800F00100002886
:103F400045D0086C40F20163984340F480700864E7
:103F50000868406800F4806028B1086C20F40050C4
:103F600040F480500864086C00F4805020B1486C24
:103F700020F00600486401E00020486400BF0020F3
:103F800081F83C0000BF154A6FF022000B681860F2
:103F9000506800F01F0058B90868806800F0405071
:103FA000A8B90868806840F080400B6898600EE00F
:103FB0000B4B086898420AD10868806800F04050AE
:103FC00028B90868806840F080400B68986000203D
:103FD00092E700006C0B002040420F0000230140DC
:103FE00000200140014691F83500022803D08020CE
:103FF000486501207047052081F835000868006891
:1040000020F001000A6810600020F3E770B5044654
:104010000CB9012070BD94F83500022800D1F9E7F1
:104020002068006820F001002168086000202168F5
:10403000086021684860216888602168C86021683C
:1040400008612120216848612046FFF765F905468F
:1040500094F85C103F208840A8600020606584F8D8
:10406000350000BF84F8340000BF00BFD2E7000075
:10407000F8B50446002000908C4800684FF41651B3
:10408000B0FBF1F7A56D2E6894F85C10082088400D
:10409000304098B12068006800F0040070B12068DA
:1040A000006820F004002168086094F85C10082083
:1040B0008840A860606D40F00100606594F85C1075
:1040C00001208840304068B12068406900F08000DD
:1040D00040B194F85C1001208840A860606D40F009
:1040E0000200606594F85C1004208840304068B19C
:1040F0002068006800F0020040B194F85C100420D1
:104100008840A860606D40F00400606594F85C1021
:1041100010208840304078B32068006800F0080024
:1041200050B394F85C1010208840A86020680068A4
:1041300000F4802080B12068006800F4002028B9D5
:10414000206CC8B12046216C884715E0A06C98B15E
:104150002046A16C88470FE02068006800F480705A
:1041600028B92068006820F0080021680860206CE9
:1041700010B12046216C884794F85C1020208840BC
:104180003040002865D02068006800F0100000284A
:104190005FD094F85C1020208840A86094F8350027
:1041A000052828D12068006820F0160021680860E2
:1041B0002068406920F0800021684861206C08B9BF
:1041C000A06C28B12068006820F008002168086011
:1041D00094F85C103F208840A86000BF002084F85D
:1041E000340000BF012084F83500206D10B1204656
:1041F000216D8847F8BD2068006800F4802080B1F8
:104200002068006800F4002028B9606C10B12046D6
:10421000616C88471DE0E06BD8B12046E16B8847B0
:1042200017E02068006800F4807068B920680068B2
:1042300020F010002168086000BF002084F83400DE
:1042400000BF012084F83500E06B10B12046E16B1F
:104250008847606D38B3606D00F00100F0B1052053
:1042600084F835002068006820F0010021680860AB
:1042700000BF0098401C0090B84200D905E02068BB
:10428000006800F001000028F3D100BF00BF00204B
:1042900084F8340000BF012084F83500E06C10B1D0
:1042A0002046E16C884700BFA4E700006C0B0020AB
:1042B0002DE9F0410446002500F0A6FB074614B99D
:1042C0000120BDE8F081606A00B100BF00BF00209E
:1042D00084F8340000BF022084F8350020680068AC
:1042E00020F00100216808600AE000F08DFBC01B8F
:1042F000052805D920206065032084F83500E0E713
:104300002068006800F001000028EED120680568F0
:1043100021480540D4E901010843E16808432169C7
:10432000084361690843A1690843E1690843216AB8
:1043300008430543606A042803D1D4E90B0108430C
:104340000543206805602068456925F00705606A17
:104350000543606A04280DD1A06A0543E06A48B1AC
:104360002046FEF7F3FF28B140206065012084F865
:104370003500A6E7206845612046FEF7CDFF0646DA
:1043800094F85C103F208840B060002060650120F8
:1043900084F83500002094E73F8010F02DE9F041CB
:1043A00004460D4616461F464FF0000800BF94F81D
:1043B0003400012802D10220BDE8F081012084F8F8
:1043C000340000BF94F83500012811D1022084F890
:1043D0003500002060653B46324629462046FFF7FF
:1043E0001BF82068006840F001002168086006E0C2
:1043F00000BF002084F8340000BF4FF002084046A0
:10440000DAE72DE9F04704460D4616461F464FF001
:104410000008D4F8589000BF94F83400012802D165
:104420000220BDE8F087012084F8340000BF94F832
:10443000350001282BD1022084F83500002060656A
:104440003B46324629462046FEF7E6FF94F85C10CC
:104450003F208840C9F808002068006840F0160036
:10446000216808602068406940F080002168486148
:10447000206C28B12068006840F0080021680860BE
:104480002068006840F001002168086006E000BF75
:10449000002084F8340000BF4FF002084046C0E717
:1044A000704700002DE9F04104460E460127002523
:1044B00000BF2548007E012802D10220BDE8F0811E
:1044C00001202149087600BF4CF25030FFF74CF92B
:1044D0000746002F31D1401E3060206801280FD1DF
:1044E000207C6168FFF78CF84CF25030FFF73CF904
:1044F00007461648006820F00400144908601AE0D6
:10450000A56812E0217C2846FFF710F84CF25030E5
:10451000FFF72AF907460D48006820F0FA000B491A
:1045200008600FB1356005E06D1CD4E90210084445
:10453000A842E7D800BFFFF727F800BF00200249D4
:10454000087600BF3846B9E7309C0020103C024096
:104550000348006840F000400149086000207047AF
:10456000103C02402DE9F04106460F4614461D4618
:104570004FF0010800BF1F48007E012802D1022031
:10458000BDE8F08101201B49087600BF4CF2503095
:10459000FFF7EAF88046B8F1000F23D126B9E1B25F
:1045A0003846FFF745F812E0012E04D1A1B2384693
:1045B000FFF766F80BE0022E04D121463846FFF7DC
:1045C00073F804E022462B463846FFF743F84CF2D6
:1045D0005030FFF7C9F880460748006820F0010016
:1045E0000549086000BF00200249087600BF404628
:1045F000C6E70000309C0020103C02400020094922
:10460000096801F0004159B10749064A0C3A1160A6
:10461000064911600349096801F0004101B1012018
:1046200070470000103C024023016745AB89EFCD85
:10463000F0B50C46002500220023002192E001265F
:1046400006FA01F504EA0502AA427DD106684FEA9E
:10465000410C032707FA0CF7BE430660CF0800F1B0
:10466000200656F827604F074FEAD76C0F2707FA46
:104670000CF7BE434FEAD10C00F1200747F82C603D
:1046800086684FEA410C032707FA0CF7BE438660A1
:10469000466801278F40BE434660C6684FEA410C1A
:1046A000032707FA0CF7BE43C660304E8F0856F852
:1046B00027308E07370F0F26BE4033402C4EB042B6
:1046C00001D1002623E02B4EB04201D101261EE08D
:1046D000294EB04201D1022619E0284EB04201D144
:1046E000032614E0264EB04201D104260FE0254EE9
:1046F000B04201D105260AE0234EB04201D1062680
:1047000005E0224EB04201D1072600E008268F07BF
:104710003F0FBE409E4224D18E07370F0F2606FA68
:1047200007F3124E8F0856F827609E430F4F4FEA4B
:10473000910C47F82C60164E36689643144F3E6035
:104740003E1D3668964300E00BE03F1D3E603E1D77
:10475000366896433F1D3E603E1D366896433F1DBA
:104760003E60491C1029FFF46AAFF0BD08380140D3
:10477000000002400004024000080240000C024019
:10478000001002400014024000180240001C0240C9
:10479000003C014070B50546284605F02DFC044656
:1047A00004EB4400094901EB8000406858B104EB78
:1047B00044020B4603EB8202906804EB440203EBD5
:1047C00082025168884700BF70BD00004C01002084
:1047D00010B5044604480068204020B10248046037
:1047E0002046FFF7D7FF10BD143C0140F8B5024644
:1047F0000B460025002400200021DCE0012606FAFB
:1048000001F51E6806EA0504AC4273D15E68022E0B
:1048100002D05E68122E13D1CF0802F1200656F89E
:1048200027004E07F70E0F26BE40B0434F07FF0E7E
:104830001E69BE403043CF0802F1200646F827002B
:1048400010684F000326BE40B0431E7906F00306F1
:104850004F00BE40304310605E68012E08D05E6895
:10486000022E05D05E68112E02D05E68122E13D182
:1048700090684F000326BE40B0434F00DE68BE4044
:1048800030439060506801268E40B0431E79C6F3D5
:1048900000168E4030435060D0684F000326BE4063
:1048A000B0434F009E68BE403043D0605E6806F063
:1048B0008056B6F1805F7DD100BF00260096404E45
:1048C000366846F480463E4F3E603E46366806F403
:1048D0008046009600BF00BF3A4E8F0856F827006A
:1048E0008E07370F0F26BE40B043374EB24202D17B
:1048F000002624E05EE0354EB24201D101261EE0E2
:10490000334EB24201D1022619E0324EB24201D1F9
:10491000032614E0304EB24201D104260FE02F4EA0
:10492000B24201D105260AE02D4EB24201D106263F
:1049300005E02C4EB24201D1072600E008268F0781
:104940003F0FBE4030431F4E8F0846F82700264ECB
:104950003068A0435E6806F48036B6F5803F00D12B
:104960002043214E3060361D3068A0435E6806F457
:104970000036B6F5003F00D120431B4E361D306097
:10498000361D3068A0435E6806F48016B6F5801FB9
:1049900000D12043144E08363060361D3068A043E5
:1049A0005E6806F40016B6F5001F00D120430E4ED7
:1049B0000C363060491C1029FFF420AFF8BD000010
:1049C0004438024008380140000002400004024020
:1049D00000080240000C0240001002400014024097
:1049E00000180240001C0240003C014002461369CE
:1049F0000B400BB1012000E0002070470AB181613B
:104A000001E00B048361704710B52CF025FA4FF4D8
:104A10007A714843B0FBF1F010BD70B504460CB993
:104A2000012070BD4CF6CC402168086045F255501D
:104A300021680860D4E9001048602168A068886097
:104A4000FFF7E2FF054606E0FFF7DEFF401B3028D8
:104A500001D90320E5E72068C0680028F4D14AF6B0
:104A6000AA20216808600020DBE701464AF6AA2058
:104A70000A681060002070470348006803490978FD
:104A80000844014908607047700B0020780B002033
:104A900010B50D48006840F400700B4908600846E6
:104AA000006840F4806008600846006840F4807048
:104AB0000860032000F08CF8002000F007F800F0F8
:104AC00009F8002010BD0000003C02400146002013
:104AD0007047000008B500BF002000900E48006835
:104AE00040F480400C4908600846006800F48040AB
:104AF000009000BF00BF00BF00200090081F0068AA
:104B000040F08050091F08600846006800F080509F
:104B1000009000BF00BF08BD4438024000BF00F055
:104B20001F0201219140034A430942F8231000BFAC
:104B30007047000080E100E000BF00F01F0201218B
:104B400091404209920002F1E022C2F8001100BF38
:104B500070472DE9F05F80460D461646002702F0AB
:104B6000ADF8074639462A46334601F00700C0F142
:104B7000070ABAF1040F02D94FF0040A01E0C0F1AC
:104B8000070AD14600F1040ABAF1070F02D24FF02A
:104B9000000A01E0A0F1030AD4464FF0010A0AFA24
:104BA00009FAAAF1010A0AEA020A0AFA0CFA4FF013
:104BB000010B0BFA0CFBABF1010B0BEA030B4AEAFE
:104BC0000B042146404602F081F8BDE8F09F00004A
:104BD00000BF00F00702064B19684FF6FF031940AB
:104BE000044B0B4343EA0221014B196000BF70479D
:104BF0000CED00E00000FA05012001490862704751
:104C000000000E42F8B5044600250026207800F08A
:104C1000010020B9207800F0040004282FD10020E2
:104C20005B498866FFF7F0FE054606E0FFF7ECFEFD
:104C3000401B022801D90320F8BD56480068C0F384
:104C4000C0600028F2D160688101207A41EA0070DA
:104C500050498431086001204D498866FFF7D4FE31
:104C6000054606E0FFF7D0FE401B022801D90320CD
:104C7000E2E748480068C0F3C0600028F2D020781E
:104C800000F0020002287DD100BF002000904148C2
:104C90004030006840F080503E494031086008468E
:104CA000006800F08050009000BF00BF3A480068E4
:104CB00040F4807038490860FFF7A6FE054606E01C
:104CC000FFF7A2FE401B022801D90320B4E73248B7
:104CD000006800F480700028F2D02E487030006820
:104CE00000F440764EB3A08900F44070B04224D066
:104CF00028487030006820F4407601202749086079
:104D000000200860234870300660006800F0010051
:104D100098B1FFF779FE054608E0FFF775FE401BE6
:104D200041F28831884201D9032085E71948703063
:104D30000068C0F340000028EFD000BFA08900F455
:104D40004070B0F5407F0CD112480830006820F464
:104D5000F810134AE168114008430E490831086011
:104D600007E00C480830006820F4F81009490831C1
:104D70000860084870300068A189C1F30B0108433E
:104D8000044900E002E07031086000BF002053E7F2
:104D9000000047420038024000700040400E474289
:104DA000FFFCFF0F70B504460D460CB9012070BD25
:104DB0005848006800F00F00A84209D255490D700C
:104DC0000846006800F00F00A84201D00120EEE77D
:104DD000207800F0020002281DD1207800F00400A5
:104DE000042805D14C48006840F4E0504A49086066
:104DF000207800F00800082805D14748006840F4F2
:104E00006040454908604448006820F0F000A1680F
:104E1000084341490860207800F00100A8B36068A9
:104E2000012807D13C4808380068C0F34040B8B9B1
:104E30000120BCE76068022802D06068032807D11F
:104E4000354808380068C0F3406048B90120AEE733
:104E5000314808380068C0F3400008B90120A6E7CF
:104E60002D48006820F00300616808432A49086063
:104E7000FFF7CAFD064609E0FFF7C6FD801B41F2B9
:104E80008831884202D9032091E707E02248006870
:104E900000F00C006168B0EB810FEDD11D48006897
:104EA00000F00F00A84209D91A490D7008460068A1
:104EB00000F00F00A84201D0012078E7207800F030
:104EC0000400042807D11448006820F4E050E16889
:104ED000084311490860207800F00800082808D12C
:104EE0000D48006820F46040216940EAC1000A4989
:104EF000086000F03DF808490968C1F30311074A4A
:104F0000515CC840064908600020FFF7DFFD002023
:104F10004DE70000003C02400838024028AF060878
:104F20006C0B002001480068704700006C0B0020EB
:104F300000B5FFF7F7FF04490968C1F38221034A6E
:104F4000515CC84000BD00000838024038AF060878
:104F500000B5FFF7E7FF04490968C1F34231034A8E
:104F6000515CC84000BD00000838024038AF060858
:104F70002DE9F047002400250026A14625480068B9
:104F800000F00C0020B1042805D008283AD105E033
:104F9000DFF8849039E0DFF8849036E01D48001F88
:104FA000006800F03F041B48001F006800F4800008
:104FB00078B11A481749091F0968C1F38811A0FB85
:104FC00001700146224600233846FBF76DFA05467C
:104FD0000EE011480F49091F0968C1F38811A0FBB1
:104FE00001700146224600233846FBF75DFA05466C
:104FF0000848001F0068C0F30140401C4600B5FB94
:10500000F6F902E0DFF8109000BF00BF4846BDE8A7
:10501000F0870000083802400024F40000127A00F3
:10502000F8B504460CB90120F8BD207800F0010065
:10503000002874D0F948006800F00C0004280DD056
:10504000F648006800F00C00082813D1F348001F50
:10505000006800F48000B0F5800F0BD1EF480838ED
:105060000068C0F34040002859D06068002856D13D
:105070000120D9E700BF6068B0F5803F08D1E7485C
:105080000838006840F48030E449083908601EE0C0
:105090006068B0F5A02F0DD1E0480838006840F4F2
:1050A0008020DE49083908600846006840F48030F6
:1050B00008600CE0D9480838006820F48030D749EF
:1050C000083908600846006820F48020086000BFA6
:1050D000606890B1FFF798FC054606E0FFF794FC86
:1050E000401B642801D903209EE7CC48083800689B
:1050F000C0F340400028F1D011E0FFF785FC0546E1
:1051000006E0FFF781FC401B642801D903208BE7F0
:10511000C24808380068C0F340400028F1D1207828
:1051200000F0020002285FD1BC48006800F00C00CB
:1051300058B1BA48006800F00C0008281CD1B748E4
:10514000001F006800F48000B0B9B4480838006857
:10515000C0F3400020B1E068012801D0012063E7DE
:10516000AE480838006820F0F800216940EAC10024
:10517000AA490839086037E0E06800B30120A8496F
:105180000860FFF741FC054606E0FFF73DFC401BC9
:10519000022801D9032047E7A04808380068C0F377
:1051A00040000028F1D09D480838006820F0F80041
:1051B000216940EAC10099490839086014E00020DB
:1051C00097490860FFF720FC054606E0FFF71CFC46
:1051D000401B022801D9032026E7904808380068C0
:1051E000C0F340000028F1D1207800F00800082822
:1051F0002CD16069A8B101208A490860FFF704FC3E
:10520000054606E0FFF700FC401B022801D90320F9
:105210000AE782486C300068C0F340000028F1D0F3
:1052200014E000207F490860FFF7EEFB054606E02A
:10523000FFF7EAFB401B022801D90320F4E6774878
:105240006C300068C0F340000028F1D1207800F0F5
:105250000400042870D1002670483830006800F03F
:10526000805090B900BF002000906C483830006832
:1052700040F080506949383108600846006800F005
:105280008050009000BF00BF01266748006800F40E
:105290008070B0B96448006840F48070624908606A
:1052A000FFF7B2FB054606E0FFF7AEFB401B022806
:1052B00001D90320B8E65C48006800F4807000283B
:1052C000F2D000BFA068012808D1544868300068B7
:1052D00040F001005149683108601DE0A0680528D0
:1052E0000DD14E486830006840F004004B496831E9
:1052F00008600846006840F0010008600CE047487C
:105300006830006820F001004449683108600846B0
:10531000006820F00400086000BFA068A8B1FFF793
:1053200073FB054609E0FFF76FFB401B41F2883134
:10533000884202D9032077E626E0384868300068C2
:10534000C0F340000028EED013E0FFF75DFB0546F8
:1053500008E0FFF759FB401B41F28831884201D930
:10536000032061E62D4868300068C0F34000002843
:10537000EFD1012E07D129483830006820F0805045
:1053800026493831086000BFA069B8B323480068D7
:1053900000F00C0008285ED0A069022846D1002049
:1053A0001F490866FFF730FB054606E0FFF72CFBB8
:1053B000401B022801D9032036E618480838006847
:1053C000C0F340600028F1D1D4E907010843616AC5
:1053D00040EA81110122A06AC2EB500041EA00417B
:1053E0002C20005D41EA00600C49091F0860012083
:1053F0000B490866FFF708FB054607E02DE0FFF7BD
:1054000003FB401B022801D903200DE6034808389E
:105410000068C0F340600028F1D01EE00838024068
:1054200000004742800E47420070004000200C49B7
:105430000866FFF7E9FA054606E0FFF7E5FA401BC4
:10544000022801D90320EFE506480068C0F3406058
:105450000028F2D101E00120E6E50020E4E50000AB
:10546000000047420038024002460023106800F165
:10547000500303EB81031868704710B500230468DC
:1054800004F1500303EB81031A6010BD70B50546AB
:105490000B4616460024286840680E4900EA0104BD
:1054A000200CD870C4F30420587004F03F009870AA
:1054B000C4F3423018705EB9D87801F03BFCD87064
:1054C000587801F037FC5870987801F033FC9870E8
:1054D000002070BD3FFFFF0070B504460B46164626
:1054E00000252068806A586020680069C0F30E00BB
:1054F0009860206800680F4900EA0105C5F305407F
:105500001870C5F30620587005F07F00987005F4F8
:105510008000000CD8705EB9187801F00BFC187090
:10552000587801F007FC5870987801F003FC9870E7
:10553000002070BD7F7F7F0010B504460CB90120AC
:1055400010BD607F20B900202077204600F060F871
:105550000220607700BFCA2021684862532021687A
:10556000486200BF204601F0FDFB40B100BFFF20B4
:105570002168486200BF042060770120E0E72068CE
:105580008068224908402168886021696068084372
:105590006169084321688968084321688860216837
:1055A000E068086120680169208941EA00402168BB
:1055B00008612068C06820F080002168C860206809
:1055C000806800F0200060B9204600F049F940B141
:1055D00000BFFF202168486200BF042060770120DF
:1055E000AEE72068006C20F4802021680864206801
:1055F000006CA16908432168086400BFFF2021688E
:10560000486200BF01206077002099E7BFFF8FFF4D
:10561000034A0168914202D10121024A1160704798
:10562000002800403C0E47422DE9F04104460D465B
:105630001646002700BF207F012802D10220BDE8C6
:10564000F0810120207700BF022060774EB9687892
:1056500000F01000102804D1687800F0EF000A3044
:10566000687086B9E87801F070FB0304687801F08F
:105670006CFB43EA0023A87801F067FB034328781A
:1056800043EA403709E0E8780004697840EA0120FD
:10569000A9780843297840EA413700BFCA20216829
:1056A000486253202168486200BF204601F05AFB3F
:1056B00060B100BFFF202168486200BF042060770E
:1056C00000BF0020207700BF0120B8E7164838400F
:1056D000216848602068C06820F080002168C860A8
:1056E0002068806800F0200080B9204600F0B8F8FB
:1056F00060B100BFFF202168486200BF04206077CE
:1057000000BF0020207700BF012098E700BFFF20E6
:105710002168486200BF0120607700BF0020207729
:1057200000BF00BF8BE700003FFFFF002DE9F04105
:1057300004460D461646002700BF207F012802D1EF
:105740000220BDE8F0810120207700BF02206077B1
:10575000CEB92068806800F0400000B102E000206F
:10576000E87000BF287801F0F0FA0304687801F0CF
:10577000ECFA43EA0023A87801F0E7FA0343E8785B
:1057800043EA004716E02068806800F0400020B13E
:10579000287801F0CFFA074602E00020E87000BF49
:1057A00028780004697840EA0120A9780843E9785C
:1057B00040EA014700BFCA2021684862532021689F
:1057C000486200BF204601F0CDFA60B100BFFF2063
:1057D0002168486200BF0420607700BF0020207766
:1057E00000BF0120ADE71D483840216808602068EF
:1057F000806820F4802021688860D5E9030108438F
:10580000216889680843216888602068C06820F0A2
:1058100080002168C8602068806800F0200080B99E
:10582000204600F01DF860B100BFFF2021684862EB
:1058300000BF0420607700BF0020207700BF012058
:105840007FE700BFFF202168486200BF012060772A
:1058500000BF0020207700BF00BF72E77F7F7F007E
:1058600070B5044600252068C06820F0A0002168BB
:10587000C860FFF7C9F8054607E0FFF7C5F8401B09
:10588000B0F57A7F01D9032070BD2068C06800F0B0
:1058900020000028F1D00020F6E7000010B586B007
:1058A0000446142101A8FBF737FA2A4920688842E8
:1058B0004DD100BF002000902748006840F40060F0
:1058C000254908600846006800F40060009000BFA9
:1058D00000BF00BF002000901F481438006840F04F
:1058E00004001D49143908600846006800F00400EF
:1058F000009000BF00BF00BF002000900846006875
:1059000040F0080008600846006800F008000090B9
:1059100000BF00BF4FF4F850019002200290002019
:105920000390032004900C20059001A90B48FEF77A
:105930005DFF0420019002200290002003900320CC
:1059400004900C20059001A90548FEF74FFF06B012
:1059500010BD0000002C0140443802400008024005
:10596000000C02407047014691F85100704700005A
:10597000F8B50446206846682068856805F0400050
:1059800048B905F0010030B106F0400018B12046DA
:10599000216C8847F8BD05F0020030B106F08000A8
:1059A00018B12046616C8847F4E705F4B070002810
:1059B00076D006F02000002872D005F04000F0B14B
:1059C00094F8510003280ED0606D40F0040060652B
:1059D00000BF002000902068C068009020688068A8
:1059E000009000BF0BE000BF002000902068C0685E
:1059F000009020688068009000BF00BFCAE705F0F3
:105A0000200088B1606D40F00100606500BF00209B
:105A100000902068806800902068006820F04000B6
:105A20002168086000BF00BF05F4807058B1606D48
:105A300040F00800606500BF00200090206880688A
:105A4000009000BF00BF606D20B32068406820F068
:105A5000E00021684860012084F8510006F002004F
:105A600010B906F00100B8B12068406820F00300CA
:105A700021684860E06C28B10A48E16C0865E06C78
:105A8000FEF7B0FAA06C28B10648A16C0865A06CBE
:105A9000FEF7A8FA03E003E02046FFF763FF79E78B
:105AA00000BF77E73D6F000810B504460CB9012030
:105AB00010BD606A00B900BF0021A16294F85100D6
:105AC00028B9002084F85000204600F033F8022066
:105AD00084F851002068006820F0400021680860C8
